{
  "contractName": "MemoryToken",
  "abi": [
    {
      "inputs": [],
      "stateMutability": "nonpayable",
      "type": "constructor"
    },
    {
      "anonymous": false,
      "inputs": [
        {
          "indexed": true,
          "internalType": "address",
          "name": "owner",
          "type": "address"
        },
        {
          "indexed": true,
          "internalType": "address",
          "name": "approved",
          "type": "address"
        },
        {
          "indexed": true,
          "internalType": "uint256",
          "name": "tokenId",
          "type": "uint256"
        }
      ],
      "name": "Approval",
      "type": "event"
    },
    {
      "anonymous": false,
      "inputs": [
        {
          "indexed": true,
          "internalType": "address",
          "name": "owner",
          "type": "address"
        },
        {
          "indexed": true,
          "internalType": "address",
          "name": "operator",
          "type": "address"
        },
        {
          "indexed": false,
          "internalType": "bool",
          "name": "approved",
          "type": "bool"
        }
      ],
      "name": "ApprovalForAll",
      "type": "event"
    },
    {
      "anonymous": false,
      "inputs": [
        {
          "indexed": true,
          "internalType": "address",
          "name": "from",
          "type": "address"
        },
        {
          "indexed": true,
          "internalType": "address",
          "name": "to",
          "type": "address"
        },
        {
          "indexed": true,
          "internalType": "uint256",
          "name": "tokenId",
          "type": "uint256"
        }
      ],
      "name": "Transfer",
      "type": "event"
    },
    {
      "inputs": [
        {
          "internalType": "address",
          "name": "to",
          "type": "address"
        },
        {
          "internalType": "uint256",
          "name": "tokenId",
          "type": "uint256"
        }
      ],
      "name": "approve",
      "outputs": [],
      "stateMutability": "nonpayable",
      "type": "function"
    },
    {
      "inputs": [
        {
          "internalType": "address",
          "name": "owner",
          "type": "address"
        }
      ],
      "name": "balanceOf",
      "outputs": [
        {
          "internalType": "uint256",
          "name": "",
          "type": "uint256"
        }
      ],
      "stateMutability": "view",
      "type": "function",
      "constant": true
    },
    {
      "inputs": [
        {
          "internalType": "uint256",
          "name": "tokenId",
          "type": "uint256"
        }
      ],
      "name": "getApproved",
      "outputs": [
        {
          "internalType": "address",
          "name": "",
          "type": "address"
        }
      ],
      "stateMutability": "view",
      "type": "function",
      "constant": true
    },
    {
      "inputs": [
        {
          "internalType": "address",
          "name": "owner",
          "type": "address"
        },
        {
          "internalType": "address",
          "name": "operator",
          "type": "address"
        }
      ],
      "name": "isApprovedForAll",
      "outputs": [
        {
          "internalType": "bool",
          "name": "",
          "type": "bool"
        }
      ],
      "stateMutability": "view",
      "type": "function",
      "constant": true
    },
    {
      "inputs": [],
      "name": "name",
      "outputs": [
        {
          "internalType": "string",
          "name": "",
          "type": "string"
        }
      ],
      "stateMutability": "view",
      "type": "function",
      "constant": true
    },
    {
      "inputs": [
        {
          "internalType": "uint256",
          "name": "tokenId",
          "type": "uint256"
        }
      ],
      "name": "ownerOf",
      "outputs": [
        {
          "internalType": "address",
          "name": "",
          "type": "address"
        }
      ],
      "stateMutability": "view",
      "type": "function",
      "constant": true
    },
    {
      "inputs": [
        {
          "internalType": "address",
          "name": "from",
          "type": "address"
        },
        {
          "internalType": "address",
          "name": "to",
          "type": "address"
        },
        {
          "internalType": "uint256",
          "name": "tokenId",
          "type": "uint256"
        }
      ],
      "name": "safeTransferFrom",
      "outputs": [],
      "stateMutability": "nonpayable",
      "type": "function"
    },
    {
      "inputs": [
        {
          "internalType": "address",
          "name": "from",
          "type": "address"
        },
        {
          "internalType": "address",
          "name": "to",
          "type": "address"
        },
        {
          "internalType": "uint256",
          "name": "tokenId",
          "type": "uint256"
        },
        {
          "internalType": "bytes",
          "name": "data",
          "type": "bytes"
        }
      ],
      "name": "safeTransferFrom",
      "outputs": [],
      "stateMutability": "nonpayable",
      "type": "function"
    },
    {
      "inputs": [
        {
          "internalType": "address",
          "name": "operator",
          "type": "address"
        },
        {
          "internalType": "bool",
          "name": "approved",
          "type": "bool"
        }
      ],
      "name": "setApprovalForAll",
      "outputs": [],
      "stateMutability": "nonpayable",
      "type": "function"
    },
    {
      "inputs": [
        {
          "internalType": "bytes4",
          "name": "interfaceId",
          "type": "bytes4"
        }
      ],
      "name": "supportsInterface",
      "outputs": [
        {
          "internalType": "bool",
          "name": "",
          "type": "bool"
        }
      ],
      "stateMutability": "view",
      "type": "function",
      "constant": true
    },
    {
      "inputs": [],
      "name": "symbol",
      "outputs": [
        {
          "internalType": "string",
          "name": "",
          "type": "string"
        }
      ],
      "stateMutability": "view",
      "type": "function",
      "constant": true
    },
    {
      "inputs": [
        {
          "internalType": "uint256",
          "name": "index",
          "type": "uint256"
        }
      ],
      "name": "tokenByIndex",
      "outputs": [
        {
          "internalType": "uint256",
          "name": "",
          "type": "uint256"
        }
      ],
      "stateMutability": "view",
      "type": "function",
      "constant": true
    },
    {
      "inputs": [
        {
          "internalType": "address",
          "name": "owner",
          "type": "address"
        },
        {
          "internalType": "uint256",
          "name": "index",
          "type": "uint256"
        }
      ],
      "name": "tokenOfOwnerByIndex",
      "outputs": [
        {
          "internalType": "uint256",
          "name": "",
          "type": "uint256"
        }
      ],
      "stateMutability": "view",
      "type": "function",
      "constant": true
    },
    {
      "inputs": [
        {
          "internalType": "uint256",
          "name": "tokenId",
          "type": "uint256"
        }
      ],
      "name": "tokenURI",
      "outputs": [
        {
          "internalType": "string",
          "name": "",
          "type": "string"
        }
      ],
      "stateMutability": "view",
      "type": "function",
      "constant": true
    },
    {
      "inputs": [],
      "name": "totalSupply",
      "outputs": [
        {
          "internalType": "uint256",
          "name": "",
          "type": "uint256"
        }
      ],
      "stateMutability": "view",
      "type": "function",
      "constant": true
    },
    {
      "inputs": [
        {
          "internalType": "address",
          "name": "from",
          "type": "address"
        },
        {
          "internalType": "address",
          "name": "to",
          "type": "address"
        },
        {
          "internalType": "uint256",
          "name": "tokenId",
          "type": "uint256"
        }
      ],
      "name": "transferFrom",
      "outputs": [],
      "stateMutability": "nonpayable",
      "type": "function"
    },
    {
      "inputs": [
        {
          "internalType": "address",
          "name": "_to",
          "type": "address"
        },
        {
          "internalType": "string",
          "name": "_tokenUri",
          "type": "string"
        }
      ],
      "name": "mint",
      "outputs": [
        {
          "internalType": "bool",
          "name": "",
          "type": "bool"
        }
      ],
      "stateMutability": "nonpayable",
      "type": "function"
    }
  ],
  "bytecode": "0x60806040523480156200001157600080fd5b506040518060400160405280601981526020017f4d656d6f7279204e6f6e20466f6e6461626c6520546f6b656e000000000000008152506040518060400160405280600481526020017f4d4e4654000000000000000000000000000000000000000000000000000000008152508181816000908162000091919062000328565b508060019081620000a3919062000328565b50505050506200040f565b600081519050919050565b7f4e487b7100000000000000000000000000000000000000000000000000000000600052604160045260246000fd5b7f4e487b7100000000000000000000000000000000000000000000000000000000600052602260045260246000fd5b600060028204905060018216806200013057607f821691505b602082108103620001465762000145620000e8565b5b50919050565b60008190508160005260206000209050919050565b60006020601f8301049050919050565b600082821b905092915050565b600060088302620001b07fffffffffffffffffffffffffffffffffffffffffffffffffffffffffffffffff8262000171565b620001bc868362000171565b95508019841693508086168417925050509392505050565b6000819050919050565b6000819050919050565b60006200020962000203620001fd84620001d4565b620001de565b620001d4565b9050919050565b6000819050919050565b6200022583620001e8565b6200023d620002348262000210565b8484546200017e565b825550505050565b600090565b6200025462000245565b620002618184846200021a565b505050565b5b8181101562000289576200027d6000826200024a565b60018101905062000267565b5050565b601f821115620002d857620002a2816200014c565b620002ad8462000161565b81016020851015620002bd578190505b620002d5620002cc8562000161565b83018262000266565b50505b505050565b600082821c905092915050565b6000620002fd60001984600802620002dd565b1980831691505092915050565b6000620003188383620002ea565b9150826002028217905092915050565b6200033382620000ae565b67ffffffffffffffff8111156200034f576200034e620000b9565b5b6200035b825462000117565b620003688282856200028d565b600060209050601f831160018114620003a057600084156200038b578287015190505b6200039785826200030a565b86555062000407565b601f198416620003b0866200014c565b60005b82811015620003da57848901518255600182019150602085019450602081019050620003b3565b86831015620003fa5784890151620003f6601f891682620002ea565b8355505b6001600288020188555050505b505050505050565b6134e2806200041f6000396000f3fe608060405234801561001057600080fd5b506004361061010b5760003560e01c80634f6ccce7116100a2578063a22cb46511610071578063a22cb465146102de578063b88d4fde146102fa578063c87b56dd14610316578063d0def52114610346578063e985e9c5146103765761010b565b80634f6ccce7146102305780636352211e1461026057806370a082311461029057806395d89b41146102c05761010b565b806318160ddd116100de57806318160ddd146101aa57806323b872dd146101c85780632f745c59146101e457806342842e0e146102145761010b565b806301ffc9a71461011057806306fdde0314610140578063081812fc1461015e578063095ea7b31461018e575b600080fd5b61012a60048036038101906101259190612126565b6103a6565b604051610137919061216e565b60405180910390f35b6101486103b8565b6040516101559190612219565b60405180910390f35b61017860048036038101906101739190612271565b61044a565b60405161018591906122df565b60405180910390f35b6101a860048036038101906101a39190612326565b610490565b005b6101b26105a7565b6040516101bf9190612375565b60405180910390f35b6101e260048036038101906101dd9190612390565b6105b4565b005b6101fe60048036038101906101f99190612326565b610614565b60405161020b9190612375565b60405180910390f35b61022e60048036038101906102299190612390565b6106b9565b005b61024a60048036038101906102459190612271565b6106d9565b6040516102579190612375565b60405180910390f35b61027a60048036038101906102759190612271565b61074a565b60405161028791906122df565b60405180910390f35b6102aa60048036038101906102a591906123e3565b6107d0565b6040516102b79190612375565b60405180910390f35b6102c8610887565b6040516102d59190612219565b60405180910390f35b6102f860048036038101906102f3919061243c565b610919565b005b610314600480360381019061030f91906125b1565b61092f565b005b610330600480360381019061032b9190612271565b610991565b60405161033d9190612219565b60405180910390f35b610360600480360381019061035b91906126d5565b6109a3565b60405161036d919061216e565b60405180910390f35b610390600480360381019061038b9190612731565b6109e2565b60405161039d919061216e565b60405180910390f35b60006103b182610a76565b9050919050565b6060600080546103c7906127a0565b80601f01602080910402602001604051908101604052809291908181526020018280546103f3906127a0565b80156104405780601f1061041557610100808354040283529160200191610440565b820191906000526020600020905b81548152906001019060200180831161042357829003601f168201915b5050505050905090565b600061045582610af0565b6004600083815260200190815260200160002060009054906101000a900473ffffffffffffffffffffffffffffffffffffffff169050919050565b600061049b8261074a565b90508073ffffffffffffffffffffffffffffffffffffffff168373ffffffffffffffffffffffffffffffffffffffff160361050b576040517f08c379a000000000000000000000000000000000000000000000000000000000815260040161050290612843565b60405180910390fd5b8073ffffffffffffffffffffffffffffffffffffffff1661052a610b3b565b73ffffffffffffffffffffffffffffffffffffffff161480610559575061055881610553610b3b565b6109e2565b5b610598576040517f08c379a000000000000000000000000000000000000000000000000000000000815260040161058f906128d5565b60405180910390fd5b6105a28383610b43565b505050565b6000600880549050905090565b6105c56105bf610b3b565b82610bfc565b610604576040517f08c379a00000000000000000000000000000000000000000000000000000000081526004016105fb90612967565b60405180910390fd5b61060f838383610c91565b505050565b600061061f836107d0565b8210610660576040517f08c379a0000000000000000000000000000000000000000000000000000000008152600401610657906129f9565b60405180910390fd5b600660008473ffffffffffffffffffffffffffffffffffffffff1673ffffffffffffffffffffffffffffffffffffffff168152602001908152602001600020600083815260200190815260200160002054905092915050565b6106d48383836040518060200160405280600081525061092f565b505050565b60006106e36105a7565b8210610724576040517f08c379a000000000000000000000000000000000000000000000000000000000815260040161071b90612a8b565b60405180910390fd5b6008828154811061073857610737612aab565b5b90600052602060002001549050919050565b60008061075683610f8a565b9050600073ffffffffffffffffffffffffffffffffffffffff168173ffffffffffffffffffffffffffffffffffffffff16036107c7576040517f08c379a00000000000000000000000000000000000000000000000000000000081526004016107be90612b26565b60405180910390fd5b80915050919050565b60008073ffffffffffffffffffffffffffffffffffffffff168273ffffffffffffffffffffffffffffffffffffffff1603610840576040517f08c379a000000000000000000000000000000000000000000000000000000000815260040161083790612bb8565b60405180910390fd5b600360008373ffffffffffffffffffffffffffffffffffffffff1673ffffffffffffffffffffffffffffffffffffffff168152602001908152602001600020549050919050565b606060018054610896906127a0565b80601f01602080910402602001604051908101604052809291908181526020018280546108c2906127a0565b801561090f5780601f106108e45761010080835404028352916020019161090f565b820191906000526020600020905b8154815290600101906020018083116108f257829003601f168201915b5050505050905090565b61092b610924610b3b565b8383610fc7565b5050565b61094061093a610b3b565b83610bfc565b61097f576040517f08c379a000000000000000000000000000000000000000000000000000000000815260040161097690612967565b60405180910390fd5b61098b84848484611133565b50505050565b606061099c8261118f565b9050919050565b6000806109c160016109b36105a7565b6112a190919063ffffffff16565b90506109cd84826112b7565b6109d781846114d4565b600191505092915050565b6000600560008473ffffffffffffffffffffffffffffffffffffffff1673ffffffffffffffffffffffffffffffffffffffff16815260200190815260200160002060008373ffffffffffffffffffffffffffffffffffffffff1673ffffffffffffffffffffffffffffffffffffffff16815260200190815260200160002060009054906101000a900460ff16905092915050565b60007f780e9d63000000000000000000000000000000000000000000000000000000007bffffffffffffffffffffffffffffffffffffffffffffffffffffffff1916827bffffffffffffffffffffffffffffffffffffffffffffffffffffffff19161480610ae95750610ae882611541565b5b9050919050565b610af981611623565b610b38576040517f08c379a0000000000000000000000000000000000000000000000000000000008152600401610b2f90612b26565b60405180910390fd5b50565b600033905090565b816004600083815260200190815260200160002060006101000a81548173ffffffffffffffffffffffffffffffffffffffff021916908373ffffffffffffffffffffffffffffffffffffffff160217905550808273ffffffffffffffffffffffffffffffffffffffff16610bb68361074a565b73ffffffffffffffffffffffffffffffffffffffff167f8c5be1e5ebec7d5bd14f71427d1e84f3dd0314c0f7b2291e5b200ac8c7c3b92560405160405180910390a45050565b600080610c088361074a565b90508073ffffffffffffffffffffffffffffffffffffffff168473ffffffffffffffffffffffffffffffffffffffff161480610c4a5750610c4981856109e2565b5b80610c8857508373ffffffffffffffffffffffffffffffffffffffff16610c708461044a565b73ffffffffffffffffffffffffffffffffffffffff16145b91505092915050565b8273ffffffffffffffffffffffffffffffffffffffff16610cb18261074a565b73ffffffffffffffffffffffffffffffffffffffff1614610d07576040517f08c379a0000000000000000000000000000000000000000000000000000000008152600401610cfe90612c4a565b60405180910390fd5b600073ffffffffffffffffffffffffffffffffffffffff168273ffffffffffffffffffffffffffffffffffffffff1603610d76576040517f08c379a0000000000000000000000000000000000000000000000000000000008152600401610d6d90612cdc565b60405180910390fd5b610d838383836001611664565b8273ffffffffffffffffffffffffffffffffffffffff16610da38261074a565b73ffffffffffffffffffffffffffffffffffffffff1614610df9576040517f08c379a0000000000000000000000000000000000000000000000000000000008152600401610df090612c4a565b60405180910390fd5b6004600082815260200190815260200160002060006101000a81549073ffffffffffffffffffffffffffffffffffffffff02191690556001600360008573ffffffffffffffffffffffffffffffffffffffff1673ffffffffffffffffffffffffffffffffffffffff168152602001908152602001600020600082825403925050819055506001600360008473ffffffffffffffffffffffffffffffffffffffff1673ffffffffffffffffffffffffffffffffffffffff16815260200190815260200160002060008282540192505081905550816002600083815260200190815260200160002060006101000a81548173ffffffffffffffffffffffffffffffffffffffff021916908373ffffffffffffffffffffffffffffffffffffffff160217905550808273ffffffffffffffffffffffffffffffffffffffff168473ffffffffffffffffffffffffffffffffffffffff167fddf252ad1be2c89b69c2b068fc378daa952ba7f163c4a11628f55a4df523b3ef60405160405180910390a4610f858383836001611676565b505050565b60006002600083815260200190815260200160002060009054906101000a900473ffffffffffffffffffffffffffffffffffffffff169050919050565b8173ffffffffffffffffffffffffffffffffffffffff168373ffffffffffffffffffffffffffffffffffffffff1603611035576040517f08c379a000000000000000000000000000000000000000000000000000000000815260040161102c90612d48565b60405180910390fd5b80600560008573ffffffffffffffffffffffffffffffffffffffff1673ffffffffffffffffffffffffffffffffffffffff16815260200190815260200160002060008473ffffffffffffffffffffffffffffffffffffffff1673ffffffffffffffffffffffffffffffffffffffff16815260200190815260200160002060006101000a81548160ff0219169083151502179055508173ffffffffffffffffffffffffffffffffffffffff168373ffffffffffffffffffffffffffffffffffffffff167f17307eab39ab6107e8899845ad3d59bd9653f200f220920489ca2b5937696c3183604051611126919061216e565b60405180910390a3505050565b61113e848484610c91565b61114a8484848461167c565b611189576040517f08c379a000000000000000000000000000000000000000000000000000000000815260040161118090612dda565b60405180910390fd5b50505050565b606061119a82610af0565b6000600a600084815260200190815260200160002080546111ba906127a0565b80601f01602080910402602001604051908101604052809291908181526020018280546111e6906127a0565b80156112335780601f1061120857610100808354040283529160200191611233565b820191906000526020600020905b81548152906001019060200180831161121657829003601f168201915b505050505090506000611244611803565b9050600081510361125957819250505061129c565b60008251111561128e578082604051602001611276929190612e36565b6040516020818303038152906040529250505061129c565b6112978461181a565b925050505b919050565b600081836112af9190612e89565b905092915050565b600073ffffffffffffffffffffffffffffffffffffffff168273ffffffffffffffffffffffffffffffffffffffff1603611326576040517f08c379a000000000000000000000000000000000000000000000000000000000815260040161131d90612f09565b60405180910390fd5b61132f81611623565b1561136f576040517f08c379a000000000000000000000000000000000000000000000000000000000815260040161136690612f75565b60405180910390fd5b61137d600083836001611664565b61138681611623565b156113c6576040517f08c379a00000000000000000000000000000000000000000000000000000000081526004016113bd90612f75565b60405180910390fd5b6001600360008473ffffffffffffffffffffffffffffffffffffffff1673ffffffffffffffffffffffffffffffffffffffff16815260200190815260200160002060008282540192505081905550816002600083815260200190815260200160002060006101000a81548173ffffffffffffffffffffffffffffffffffffffff021916908373ffffffffffffffffffffffffffffffffffffffff160217905550808273ffffffffffffffffffffffffffffffffffffffff16600073ffffffffffffffffffffffffffffffffffffffff167fddf252ad1be2c89b69c2b068fc378daa952ba7f163c4a11628f55a4df523b3ef60405160405180910390a46114d0600083836001611676565b5050565b6114dd82611623565b61151c576040517f08c379a000000000000000000000000000000000000000000000000000000000815260040161151390613007565b60405180910390fd5b80600a6000848152602001908152602001600020908161153c91906131d3565b505050565b60007f80ac58cd000000000000000000000000000000000000000000000000000000007bffffffffffffffffffffffffffffffffffffffffffffffffffffffff1916827bffffffffffffffffffffffffffffffffffffffffffffffffffffffff1916148061160c57507f5b5e139f000000000000000000000000000000000000000000000000000000007bffffffffffffffffffffffffffffffffffffffffffffffffffffffff1916827bffffffffffffffffffffffffffffffffffffffffffffffffffffffff1916145b8061161c575061161b82611882565b5b9050919050565b60008073ffffffffffffffffffffffffffffffffffffffff1661164583610f8a565b73ffffffffffffffffffffffffffffffffffffffff1614159050919050565b611670848484846118ec565b50505050565b50505050565b600061169d8473ffffffffffffffffffffffffffffffffffffffff16611a4a565b156117f6578373ffffffffffffffffffffffffffffffffffffffff1663150b7a026116c6610b3b565b8786866040518563ffffffff1660e01b81526004016116e894939291906132fa565b6020604051808303816000875af192505050801561172457506040513d601f19601f82011682018060405250810190611721919061335b565b60015b6117a6573d8060008114611754576040519150601f19603f3d011682016040523d82523d6000602084013e611759565b606091505b50600081510361179e576040517f08c379a000000000000000000000000000000000000000000000000000000000815260040161179590612dda565b60405180910390fd5b805181602001fd5b63150b7a0260e01b7bffffffffffffffffffffffffffffffffffffffffffffffffffffffff1916817bffffffffffffffffffffffffffffffffffffffffffffffffffffffff1916149150506117fb565b600190505b949350505050565b606060405180602001604052806000815250905090565b606061182582610af0565b600061182f611803565b9050600081511161184f576040518060200160405280600081525061187a565b8061185984611a6d565b60405160200161186a929190612e36565b6040516020818303038152906040525b915050919050565b60007f01ffc9a7000000000000000000000000000000000000000000000000000000007bffffffffffffffffffffffffffffffffffffffffffffffffffffffff1916827bffffffffffffffffffffffffffffffffffffffffffffffffffffffff1916149050919050565b6118f884848484611b3b565b600181111561193c576040517f08c379a0000000000000000000000000000000000000000000000000000000008152600401611933906133fa565b60405180910390fd5b6000829050600073ffffffffffffffffffffffffffffffffffffffff168573ffffffffffffffffffffffffffffffffffffffff16036119835761197e81611c61565b6119c2565b8373ffffffffffffffffffffffffffffffffffffffff168573ffffffffffffffffffffffffffffffffffffffff16146119c1576119c08582611caa565b5b5b600073ffffffffffffffffffffffffffffffffffffffff168473ffffffffffffffffffffffffffffffffffffffff1603611a04576119ff81611e17565b611a43565b8473ffffffffffffffffffffffffffffffffffffffff168473ffffffffffffffffffffffffffffffffffffffff1614611a4257611a418482611ee8565b5b5b5050505050565b6000808273ffffffffffffffffffffffffffffffffffffffff163b119050919050565b606060006001611a7c84611f67565b01905060008167ffffffffffffffff811115611a9b57611a9a612486565b5b6040519080825280601f01601f191660200182016040528015611acd5781602001600182028036833780820191505090505b509050600082602001820190505b600115611b30578080600190039150507f3031323334353637383961626364656600000000000000000000000000000000600a86061a8153600a8581611b2457611b2361341a565b5b04945060008503611adb575b819350505050919050565b6001811115611c5b57600073ffffffffffffffffffffffffffffffffffffffff168473ffffffffffffffffffffffffffffffffffffffff1614611bcf5780600360008673ffffffffffffffffffffffffffffffffffffffff1673ffffffffffffffffffffffffffffffffffffffff1681526020019081526020016000206000828254611bc79190613449565b925050819055505b600073ffffffffffffffffffffffffffffffffffffffff168373ffffffffffffffffffffffffffffffffffffffff1614611c5a5780600360008573ffffffffffffffffffffffffffffffffffffffff1673ffffffffffffffffffffffffffffffffffffffff1681526020019081526020016000206000828254611c529190612e89565b925050819055505b5b50505050565b6008805490506009600083815260200190815260200160002081905550600881908060018154018082558091505060019003906000526020600020016000909190919091505550565b60006001611cb7846107d0565b611cc19190613449565b9050600060076000848152602001908152602001600020549050818114611da6576000600660008673ffffffffffffffffffffffffffffffffffffffff1673ffffffffffffffffffffffffffffffffffffffff168152602001908152602001600020600084815260200190815260200160002054905080600660008773ffffffffffffffffffffffffffffffffffffffff1673ffffffffffffffffffffffffffffffffffffffff168152602001908152602001600020600084815260200190815260200160002081905550816007600083815260200190815260200160002081905550505b6007600084815260200190815260200160002060009055600660008573ffffffffffffffffffffffffffffffffffffffff1673ffffffffffffffffffffffffffffffffffffffff16815260200190815260200160002060008381526020019081526020016000206000905550505050565b60006001600880549050611e2b9190613449565b9050600060096000848152602001908152602001600020549050600060088381548110611e5b57611e5a612aab565b5b906000526020600020015490508060088381548110611e7d57611e7c612aab565b5b906000526020600020018190555081600960008381526020019081526020016000208190555060096000858152602001908152602001600020600090556008805480611ecc57611ecb61347d565b5b6001900381819060005260206000200160009055905550505050565b6000611ef3836107d0565b905081600660008573ffffffffffffffffffffffffffffffffffffffff1673ffffffffffffffffffffffffffffffffffffffff168152602001908152602001600020600083815260200190815260200160002081905550806007600084815260200190815260200160002081905550505050565b600080600090507a184f03e93ff9f4daa797ed6e38ed64bf6a1f0100000000000000008310611fc5577a184f03e93ff9f4daa797ed6e38ed64bf6a1f0100000000000000008381611fbb57611fba61341a565b5b0492506040810190505b6d04ee2d6d415b85acef81000000008310612002576d04ee2d6d415b85acef81000000008381611ff857611ff761341a565b5b0492506020810190505b662386f26fc10000831061203157662386f26fc1000083816120275761202661341a565b5b0492506010810190505b6305f5e100831061205a576305f5e10083816120505761204f61341a565b5b0492506008810190505b612710831061207f5761271083816120755761207461341a565b5b0492506004810190505b606483106120a257606483816120985761209761341a565b5b0492506002810190505b600a83106120b1576001810190505b80915050919050565b6000604051905090565b600080fd5b600080fd5b60007fffffffff0000000000000000000000000000000000000000000000000000000082169050919050565b612103816120ce565b811461210e57600080fd5b50565b600081359050612120816120fa565b92915050565b60006020828403121561213c5761213b6120c4565b5b600061214a84828501612111565b91505092915050565b60008115159050919050565b61216881612153565b82525050565b6000602082019050612183600083018461215f565b92915050565b600081519050919050565b600082825260208201905092915050565b60005b838110156121c35780820151818401526020810190506121a8565b60008484015250505050565b6000601f19601f8301169050919050565b60006121eb82612189565b6121f58185612194565b93506122058185602086016121a5565b61220e816121cf565b840191505092915050565b6000602082019050818103600083015261223381846121e0565b905092915050565b6000819050919050565b61224e8161223b565b811461225957600080fd5b50565b60008135905061226b81612245565b92915050565b600060208284031215612287576122866120c4565b5b60006122958482850161225c565b91505092915050565b600073ffffffffffffffffffffffffffffffffffffffff82169050919050565b60006122c98261229e565b9050919050565b6122d9816122be565b82525050565b60006020820190506122f460008301846122d0565b92915050565b612303816122be565b811461230e57600080fd5b50565b600081359050612320816122fa565b92915050565b6000806040838503121561233d5761233c6120c4565b5b600061234b85828601612311565b925050602061235c8582860161225c565b9150509250929050565b61236f8161223b565b82525050565b600060208201905061238a6000830184612366565b92915050565b6000806000606084860312156123a9576123a86120c4565b5b60006123b786828701612311565b93505060206123c886828701612311565b92505060406123d98682870161225c565b9150509250925092565b6000602082840312156123f9576123f86120c4565b5b600061240784828501612311565b91505092915050565b61241981612153565b811461242457600080fd5b50565b60008135905061243681612410565b92915050565b60008060408385031215612453576124526120c4565b5b600061246185828601612311565b925050602061247285828601612427565b9150509250929050565b600080fd5b600080fd5b7f4e487b7100000000000000000000000000000000000000000000000000000000600052604160045260246000fd5b6124be826121cf565b810181811067ffffffffffffffff821117156124dd576124dc612486565b5b80604052505050565b60006124f06120ba565b90506124fc82826124b5565b919050565b600067ffffffffffffffff82111561251c5761251b612486565b5b612525826121cf565b9050602081019050919050565b82818337600083830152505050565b600061255461254f84612501565b6124e6565b9050828152602081018484840111156125705761256f612481565b5b61257b848285612532565b509392505050565b600082601f8301126125985761259761247c565b5b81356125a8848260208601612541565b91505092915050565b600080600080608085870312156125cb576125ca6120c4565b5b60006125d987828801612311565b94505060206125ea87828801612311565b93505060406125fb8782880161225c565b925050606085013567ffffffffffffffff81111561261c5761261b6120c9565b5b61262887828801612583565b91505092959194509250565b600067ffffffffffffffff82111561264f5761264e612486565b5b612658826121cf565b9050602081019050919050565b600061267861267384612634565b6124e6565b90508281526020810184848401111561269457612693612481565b5b61269f848285612532565b509392505050565b600082601f8301126126bc576126bb61247c565b5b81356126cc848260208601612665565b91505092915050565b600080604083850312156126ec576126eb6120c4565b5b60006126fa85828601612311565b925050602083013567ffffffffffffffff81111561271b5761271a6120c9565b5b612727858286016126a7565b9150509250929050565b60008060408385031215612748576127476120c4565b5b600061275685828601612311565b925050602061276785828601612311565b9150509250929050565b7f4e487b7100000000000000000000000000000000000000000000000000000000600052602260045260246000fd5b600060028204905060018216806127b857607f821691505b6020821081036127cb576127ca612771565b5b50919050565b7f4552433732313a20617070726f76616c20746f2063757272656e74206f776e6560008201527f7200000000000000000000000000000000000000000000000000000000000000602082015250565b600061282d602183612194565b9150612838826127d1565b604082019050919050565b6000602082019050818103600083015261285c81612820565b9050919050565b7f4552433732313a20617070726f76652063616c6c6572206973206e6f7420746f60008201527f6b656e206f776e6572206f7220617070726f76656420666f7220616c6c000000602082015250565b60006128bf603d83612194565b91506128ca82612863565b604082019050919050565b600060208201905081810360008301526128ee816128b2565b9050919050565b7f4552433732313a2063616c6c6572206973206e6f7420746f6b656e206f776e6560008201527f72206f7220617070726f76656400000000000000000000000000000000000000602082015250565b6000612951602d83612194565b915061295c826128f5565b604082019050919050565b6000602082019050818103600083015261298081612944565b9050919050565b7f455243373231456e756d657261626c653a206f776e657220696e646578206f7560008201527f74206f6620626f756e6473000000000000000000000000000000000000000000602082015250565b60006129e3602b83612194565b91506129ee82612987565b604082019050919050565b60006020820190508181036000830152612a12816129d6565b9050919050565b7f455243373231456e756d657261626c653a20676c6f62616c20696e646578206f60008201527f7574206f6620626f756e64730000000000000000000000000000000000000000602082015250565b6000612a75602c83612194565b9150612a8082612a19565b604082019050919050565b60006020820190508181036000830152612aa481612a68565b9050919050565b7f4e487b7100000000000000000000000000000000000000000000000000000000600052603260045260246000fd5b7f4552433732313a20696e76616c696420746f6b656e2049440000000000000000600082015250565b6000612b10601883612194565b9150612b1b82612ada565b602082019050919050565b60006020820190508181036000830152612b3f81612b03565b9050919050565b7f4552433732313a2061646472657373207a65726f206973206e6f74206120766160008201527f6c6964206f776e65720000000000000000000000000000000000000000000000602082015250565b6000612ba2602983612194565b9150612bad82612b46565b604082019050919050565b60006020820190508181036000830152612bd181612b95565b9050919050565b7f4552433732313a207472616e736665722066726f6d20696e636f72726563742060008201527f6f776e6572000000000000000000000000000000000000000000000000000000602082015250565b6000612c34602583612194565b9150612c3f82612bd8565b604082019050919050565b60006020820190508181036000830152612c6381612c27565b9050919050565b7f4552433732313a207472616e7366657220746f20746865207a65726f2061646460008201527f7265737300000000000000000000000000000000000000000000000000000000602082015250565b6000612cc6602483612194565b9150612cd182612c6a565b604082019050919050565b60006020820190508181036000830152612cf581612cb9565b9050919050565b7f4552433732313a20617070726f766520746f2063616c6c657200000000000000600082015250565b6000612d32601983612194565b9150612d3d82612cfc565b602082019050919050565b60006020820190508181036000830152612d6181612d25565b9050919050565b7f4552433732313a207472616e7366657220746f206e6f6e20455243373231526560008201527f63656976657220696d706c656d656e7465720000000000000000000000000000602082015250565b6000612dc4603283612194565b9150612dcf82612d68565b604082019050919050565b60006020820190508181036000830152612df381612db7565b9050919050565b600081905092915050565b6000612e1082612189565b612e1a8185612dfa565b9350612e2a8185602086016121a5565b80840191505092915050565b6000612e428285612e05565b9150612e4e8284612e05565b91508190509392505050565b7f4e487b7100000000000000000000000000000000000000000000000000000000600052601160045260246000fd5b6000612e948261223b565b9150612e9f8361223b565b9250828201905080821115612eb757612eb6612e5a565b5b92915050565b7f4552433732313a206d696e7420746f20746865207a65726f2061646472657373600082015250565b6000612ef3602083612194565b9150612efe82612ebd565b602082019050919050565b60006020820190508181036000830152612f2281612ee6565b9050919050565b7f4552433732313a20746f6b656e20616c7265616479206d696e74656400000000600082015250565b6000612f5f601c83612194565b9150612f6a82612f29565b602082019050919050565b60006020820190508181036000830152612f8e81612f52565b9050919050565b7f45524337323155524953746f726167653a2055524920736574206f66206e6f6e60008201527f6578697374656e7420746f6b656e000000000000000000000000000000000000602082015250565b6000612ff1602e83612194565b9150612ffc82612f95565b604082019050919050565b6000602082019050818103600083015261302081612fe4565b9050919050565b60008190508160005260206000209050919050565b60006020601f8301049050919050565b600082821b905092915050565b6000600883026130897fffffffffffffffffffffffffffffffffffffffffffffffffffffffffffffffff8261304c565b613093868361304c565b95508019841693508086168417925050509392505050565b6000819050919050565b60006130d06130cb6130c68461223b565b6130ab565b61223b565b9050919050565b6000819050919050565b6130ea836130b5565b6130fe6130f6826130d7565b848454613059565b825550505050565b600090565b613113613106565b61311e8184846130e1565b505050565b5b818110156131425761313760008261310b565b600181019050613124565b5050565b601f8211156131875761315881613027565b6131618461303c565b81016020851015613170578190505b61318461317c8561303c565b830182613123565b50505b505050565b600082821c905092915050565b60006131aa6000198460080261318c565b1980831691505092915050565b60006131c38383613199565b9150826002028217905092915050565b6131dc82612189565b67ffffffffffffffff8111156131f5576131f4612486565b5b6131ff82546127a0565b61320a828285613146565b600060209050601f83116001811461323d576000841561322b578287015190505b61323585826131b7565b86555061329d565b601f19841661324b86613027565b60005b828110156132735784890151825560018201915060208501945060208101905061324e565b86831015613290578489015161328c601f891682613199565b8355505b6001600288020188555050505b505050505050565b600081519050919050565b600082825260208201905092915050565b60006132cc826132a5565b6132d681856132b0565b93506132e68185602086016121a5565b6132ef816121cf565b840191505092915050565b600060808201905061330f60008301876122d0565b61331c60208301866122d0565b6133296040830185612366565b818103606083015261333b81846132c1565b905095945050505050565b600081519050613355816120fa565b92915050565b600060208284031215613371576133706120c4565b5b600061337f84828501613346565b91505092915050565b7f455243373231456e756d657261626c653a20636f6e736563757469766520747260008201527f616e7366657273206e6f7420737570706f727465640000000000000000000000602082015250565b60006133e4603583612194565b91506133ef82613388565b604082019050919050565b60006020820190508181036000830152613413816133d7565b9050919050565b7f4e487b7100000000000000000000000000000000000000000000000000000000600052601260045260246000fd5b60006134548261223b565b915061345f8361223b565b925082820390508181111561347757613476612e5a565b5b92915050565b7f4e487b7100000000000000000000000000000000000000000000000000000000600052603160045260246000fdfea264697066735822122012ec0db22f15455b096fc4a3d46ef735749f4ed7903ba8993beae58889f4727364736f6c63430008110033",
  "immutableReferences": {},
  "source": "// SPDX-License-Identifier: MIT\npragma solidity ^0.8.0;\n\nimport \"./ERC721Full.sol\";\nimport \"@openzeppelin/contracts/utils/math/SafeMath.sol\";\n\ncontract MemoryToken is ERC721Full {\n  using SafeMath for uint256;\n  \n  constructor() ERC721Full(\"Memory Non Fondable Token\", \"MNFT\") {\n  }\n\n  function mint(address _to, string memory _tokenUri) public returns(bool) {\n    uint _tokenId = totalSupply().add(1);\n    _mint(_to, _tokenId);\n    _setTokenURI(_tokenId, _tokenUri);\n    return true;\n  }\n}\n",
  "sourcePath": "/home/luci/work/blockchain_game/src/contracts/MemoryToken.sol",
  "compiler": {
    "name": "solc",
    "version": "0.8.17+commit.8df45f5f.Emscripten.clang"
  },
  "schemaVersion": "3.4.11",
  "updatedAt": "2022-12-22T12:58:25.396Z",
  "networkType": "ethereum",
  "devdoc": {
    "kind": "dev",
    "methods": {
      "approve(address,uint256)": {
        "details": "See {IERC721-approve}."
      },
      "balanceOf(address)": {
        "details": "See {IERC721-balanceOf}."
      },
      "getApproved(uint256)": {
        "details": "See {IERC721-getApproved}."
      },
      "isApprovedForAll(address,address)": {
        "details": "See {IERC721-isApprovedForAll}."
      },
      "name()": {
        "details": "See {IERC721Metadata-name}."
      },
      "ownerOf(uint256)": {
        "details": "See {IERC721-ownerOf}."
      },
      "safeTransferFrom(address,address,uint256)": {
        "details": "See {IERC721-safeTransferFrom}."
      },
      "safeTransferFrom(address,address,uint256,bytes)": {
        "details": "See {IERC721-safeTransferFrom}."
      },
      "setApprovalForAll(address,bool)": {
        "details": "See {IERC721-setApprovalForAll}."
      },
      "symbol()": {
        "details": "See {IERC721Metadata-symbol}."
      },
      "tokenByIndex(uint256)": {
        "details": "See {IERC721Enumerable-tokenByIndex}."
      },
      "tokenOfOwnerByIndex(address,uint256)": {
        "details": "See {IERC721Enumerable-tokenOfOwnerByIndex}."
      },
      "totalSupply()": {
        "details": "See {IERC721Enumerable-totalSupply}."
      },
      "transferFrom(address,address,uint256)": {
        "details": "See {IERC721-transferFrom}."
      }
    },
    "version": 1
  },
  "userdoc": {
    "kind": "user",
    "methods": {},
    "version": 1
  }
}